:020000040000FA
:10000000F0400020A1040000A9040000AB0400009F
:10001000AD040000AF040000B104000000000000C7
:10002000000000000000000000000000B304000019
:10003000B504000000000000B7040000B90400008F
:10004000BB040000BB040000BB040000BB040000B4
:10005000BB040000BB040000BB0400000D0800004E
:10006000BB0400003D0A0000BB040000BB0400000C
:10007000BB040000BB040000BB040000BB04000084
:10008000BB040000BB040000BB040000BB04000074
:10009000BB040000BB040000BB040000BB04000064
:1000A000BB040000BB040000BB040000BB04000054
:1000B000BB040000BB0400000000000000000000C2
:1000C000BB040000BB040000BB040000BB04000034
:1000D000BB040000BB040000BB04000000000000E3
:1000E0000000000000000000000000000000000010
:1000F0000000000000000000000000000000000000
:1001000000000000000000000000000000000000EF
:1001100000000000000000000000000000000000DF
:1004000000F002F800F03CF80AA090E8000C8244EA
:100410008344AAF10107DA4501D100F031F8AFF2C7
:10042000090EBAE80F0013F0010F18BFFB1A43F0D2
:1004300001031847DC1F0000FC1F0000103A24BF16
:1004400078C878C1FAD8520724BF30C830C144BF39
:1004500004680C607047000000230024002500267B
:10046000103A28BF78C1FBD8520728BF30C148BF17
:100470000B6070471FB501F02FFF1FBD10B510BDF9
:1004800000F044F81146FFF7F5FF01F063FA00F0C1
:1004900062F803B4FFF7F2FF03BC00F065F8000058
:1004A0000948804709480047FEE7FEE7FEE7FEE708
:1004B000FEE7FEE7FEE7FEE7FEE7FEE70448054944
:1004C000054A064B70470000350800000104000093
:1004D000F0000020F0400020F0200020F02000205C
:1004E00070477047704710B500F008F8006810BDFD
:1004F00010B5044600F002F8046010BD00487047D3
:100500008C000020004870478C0000207546FFF7E3
:10051000F9FFAE4605006946534620F007008546C0
:1005200018B020B5FFF7CAFFBDE820404FF0000625
:100530004FF000074FF000084FF0000B21F00701CB
:10054000AC46ACE8C009ACE8C009ACE8C009ACE80E
:10055000C0098D46704710B50446AFF300802046B1
:10056000BDE81040FFF795BF01491820ABBEFEE77C
:10057000260002007047002006E0002100E0491C30
:10058000B1F57A7FFBD3401C42F210729042F4D353
:100590007047000010B5012044494860C01E44491E
:1005A00008604448006840F400104249086008466A
:1005B000006840F4803008600846006840F48020FD
:1005C00008600846006840F08060086008460068DF
:1005D00040F48040086001203749C8600020374956
:1005E000086001203449C1F80002102033493C3131
:1005F000086000033249086000203049091D086086
:1006000004202E490C310860092000F015FC01205F
:100610002949086000202B4908600420294910312D
:10062000086081012848C0F8181501202549F031DB
:10063000086000202349F831086004202249C1F8ED
:10064000040301212048C0F83016204820490860E2
:10065000072000F0F1FB01201A4908601A490860E0
:1006600006211C48016008211B48C0F814151B48CE
:100670001849183108600020164960310860184890
:1006800014493831086003211348C0F84815472041
:1006900013490870432048706F20887001200E496C
:1006A000886008200B490C39086010BD00500040DC
:1006B0000C120010140500500090004004950040FA
:1006C00004930040007500400070004004000020CA
:1006D0002C7600400C2500400020004000E0D701AF
:1006E0008000002070B52DED0C8B002441E02046E9
:1006F00001F0EAFB41EC1D0B9FED200B53EC102B9E
:1007000001F0F6FB41EC1C0B9FED1E0B53EC102B84
:1007100001F03CFA41EC1B0BB0EE4B0AF0EE6B0A19
:1007200000F09EFBB0EE40AAF0EE60AA9FED170B22
:1007300053EC102B51EC1A0B01F080F941EC190B22
:1007400001F04AF908EE100A9FED120A28EE000A9D
:10075000B0EE408ABCEEC80A10EE100A85B2C5F3AE
:100760000B054FF6FF7000EA85000B4921F81400D5
:10077000641C102CBBD3BDEC0C8B70BDFCDEA63F03
:10078000FB21194000000000000030400000000084
:100790000000F03F00C0FF446000002030B54FF47F
:1007A000004243F6FC7400EA0403174C246824F06A
:1007B0008064154D2C6000211DE003EA020434B171
:1007C000114C246844F480240F4D2C6005E00E4C3D
:1007D000246824F480240C4D2C600B4C246824F4F1
:1007E0008034094D2C6052102C46246844F4803427
:1007F0002C604C1CE1B21029DFDB034C246844F070
:100800008064014D2C6030BD040500500020034978
:10081000086001200249087070470000087100401C
:100820000800002001480249086070470090D0038A
:100830000C00002010B500F0B5FF10B171487249EE
:10084000486700F0C7FF28B170480068C0F3423025
:100850006F49086000F0E8FF28B16E48006820F09A
:1008600080706C49086000F0F7FF48B100206A49C9
:1008700008604FF08041C1F810016549091F086008
:1008800001F014F818B1032061496431086001F0E7
:1008900025F868B105206149086001205F49783179
:1008A000086000205D49083108603F20091F08608A
:1008B00001F02CF8002855D05948006859490860C3
:1008C0005748001D0068091D086055480830006839
:1008D000091D086052480C300068091D0860504826
:1008E00010300068091D08604D4814300068091D6B
:1008F00008604B48183000684A4920310860484871
:100900001C300068091D0860454820300068091D3A
:100910000860434824300068091D086040482830BA
:100920000068091D08603E482C300068091D0860F9
:100930003B48303000683B4940310860384834302B
:100940000068091D0860364838300068091D0860D5
:1009500033483C300068091D086031484030006869
:10096000091D086000F0F4FE30B12848143000681A
:1009700000F04F002C49086026487438006840F4A5
:100980007000244974390860BFF34F8FBFF36F8F35
:100990002648006800F0010080B301202449086067
:1009A00000BF244800680028FBD02048006820F0E1
:1009B00001004FF01021C1F80C0200BF1D48006873
:1009C0000028FBD000201A49086000BF19480068C1
:1009D0000028FBD000BFBFF34F8F0E48F0380068EF
:1009E00000F4E06014490843001D0A49F03908602A
:1009F000BFF34F8F00BF00BF00BFFDE7FFE7FFF76A
:100A000011FF10BD0DF0ADBA00C007404402001048
:100A10003C050040FCED00E00C0100401056004099
:100A20000404001020C50040E40E00400C12001029
:100A300004E5014000E401400000FA0500200749F8
:100A400008600748006880F480400549086001207C
:100A50000449486004490870704700004091004014
:100A600004050050007000400000002010B5024650
:100A700043F6FC7302EA03004FF40041E14B1B68AC
:100A800023F08063DF4C236000EA01032BB123468F
:100A90001B6843F48023236005E0DA4B1B6823F4D2
:100AA0008023D84C2360D74B1B6823F48033D54C6C
:100AB00023604FF4804123461B6843F48033236056
:100AC00000EA01032BB123461B6843F48023236013
:100AD00005E0CC4B1B6823F48023CA4C2360C94B30
:100AE0001B6823F48033C74C23604FF40051234626
:100AF0001B6843F48033236000EA01032BB12346D3
:100B00001B6843F48023236005E0BE4B1B6823F47D
:100B10008023BC4C2360BB4B1B6823F48033B94C4F
:100B200023604FF4805123461B6843F480332360D5
:100B300000EA01032BB123461B6843F480232360A2
:100B400005E0B04B1B6823F48023AE4C2360AD4B13
:100B50001B6823F48033AB4C23604FF400612346C1
:100B60001B6843F48033236000EA01032BB1234662
:100B70001B6843F48023236005E0A24B1B6823F429
:100B80008023A04C23609F4B1B6823F480339D4C33
:100B900023604FF4806123461B6843F48033236055
:100BA00000EA01032BB123461B6843F48023236032
:100BB00005E0944B1B6823F48023924C2360914BF7
:100BC0001B6823F480338F4C23604FF4007123465D
:100BD0001B6843F48033236000EA01032BB12346F2
:100BE0001B6843F48023236005E0864B1B6823F4D5
:100BF0008023844C2360834B1B6823F48033814C17
:100C000023604FF4807123461B6843F480332360D4
:100C100000EA01032BB123461B6843F480232360C1
:100C200005E0784B1B6823F48023764C2360754BDA
:100C30001B6823F48033734C2360802123461B6898
:100C400043F48033236000EA01032BB123461B6881
:100C500043F48023236005E06A4B1B6823F4802360
:100C6000684C2360674B1B6823F48033654C23601A
:100C7000402123461B6843F48033236000EA0103CC
:100C80002BB123461B6843F48023236005E05D4BB2
:100C90001B6823F480235B4C23605A4B1B6823F4AE
:100CA0008033584C2360202123461B6843F4803353
:100CB000236000EA01032BB123461B6843F4802321
:100CC000236005E04F4B1B6823F480234D4C2360C9
:100CD0004C4B1B6823F480334A4C2360102123467D
:100CE0001B6843F48033236000EA01032BB12346E1
:100CF0001B6843F48023236005E0424B1B6823F408
:100D00008023404C23603F4B1B6823F480333D4CD1
:100D10002360082123461B6843F48033236000EAE4
:100D200001032BB123461B6843F48023236005E0B5
:100D3000344B1B6823F48023324C2360314B1B68F7
:100D400023F480332F4C2360042123461B6843F493
:100D50008033236000EA01032BB123461B6843F470
:100D60008023236005E0274B1B6823F48023254C58
:100D70002360244B1B6823F48033224C2360022120
:100D800023461B6843F48033236000EA01032BB140
:100D900023461B6843F48023236005E0194B1B683E
:100DA00023F48023174C2360164B1B6823F48033F5
:100DB000144C2360012123461B6843F480332360D5
:100DC00000EA01032BB123461B6843F48023236010
:100DD00005E00C4B1B6823F480230A4C2360094B6D
:100DE0001B6823F48033074C2360002123461B68D3
:100DF00043F48033236023461B6843F08063236001
:100E000010BD00000405005003B401984100009893
:100E100050EAC12018BF04204A0D18BF40F001005D
:100E200040F2FF72B2EB515F08BF40F002000128B0
:100E300008BF052002B0704700280DDB00BF00BFCF
:100E400000F01F02012191404209920002F1E022CC
:100E5000C2F8001100BF00BF704700000000000092
:100E600010B52F499FED2C1B2DED020B84B005987A
:100E700020F000408842DCBF00209DED040B32DDF5
:100E80002849884209D1049840B94FF00100FFF782
:100E90002FFB00F03DFC06B010BD05DB9DED040B03
:100EA00000F02AFC06B010BD68469DED040B00F072
:100EB0003BF810F0030011D0012818D09DED021B63
:100EC0009DED000B02281AD000F04AFA51EC100BED
:100ED00000F076FD06B041EC100B10BD9DED021B3D
:100EE0009DED000B012000F06FFB06B010BD9DEDE5
:100EF000021B9DED000B00F033FA06B010BD01207F
:100F000000F062FB51EC100B00F05AFD06B041EC12
:100F1000100B10BD000000000000000000000000E9
:100F2000FB21E93F0000F07F2DE9F14F04462DED54
:100F3000020B2DED088B8AB09FEDE70B80ED020BC5
:100F4000139EE74826F0004585420ADC9DED120B12
:100F5000002084ED000B0AB0BDEC088B03B0BDE8A7
:100F6000F08FE0489FEDE0AB9FEDE1BBA84247DD8D
:100F7000E14F9FEDE39B9FEDE48B9DED120B53EC56
:100F80001A2B51EC100B002E1CDD01F0BBF841ECCC
:100F9000100BBD4208D053EC1B2B51EC100B01F091
:100FA000B1F8C4E900010BE053EC192B51EC100B24
:100FB00001F0A8F853EC182B01F0A4F8C4E90001E3
:100FC0000120C8E700F03AFD41EC100BBD4208D00B
:100FD00053EC1B2B51EC100B00F030FDC4E9000169
:100FE0000BE053EC192B51EC100B00F027FD53ECE8
:100FF000182B00F023FDC4E900014FF0FF30AAE7F1
:10100000C348A84279DB9DED120B51EC100B00F0A8
:1010100095FC41EC180B9FEDC00B53EC102B00F02E
:1010200067FF9FEDBF1B53EC112B00F007FD00F095
:1010300005FF074600F031FF41EC190B53EC1A2B6A
:1010400000F056FF53EC182B01F050F841EC180B50
:1010500053EC1B2B51EC190B00F04AFFDFF8C8A230
:1010600041EC100B4FEA15580125FA4453EC102BB4
:1010700051EC180B01F046F8032DC4E900013DD0F6
:10108000C1F30A5005EB4511A8EB0000113981426C
:1010900034DA0AEB051BB0EE48AA9BED000BF0EE2C
:1010A00068AA53EC102B51EC190B00F021FF41EC16
:1010B0001B0B51EC1A0B53EC1B2B01F023F841ECEA
:1010C000180B51EC1A0B53EC182B01F01BF853ECD6
:1010D0001B2B01F017F89BED020B41EC1A0B53ECA4
:1010E000102B51EC190B00F003FF53EC1A2B01F0FD
:1010F00009F841EC100B6D1CB8E70EE0002EA8BFFC
:101100003846BFF628AF94ED000B51EC100B00F001
:1011100057FCC4E9000178421DE7C6F3130040F410
:10112000801EC6F30A50A0F2F530471100F01F05EB
:10113000C5F12000DDF848B0089000200690079027
:101140000520EC467949002D07EB0002794408BFE1
:1011500051F8221009D051F8223001EB8201AB4046
:101160004A68089922FA01F11943A1FB0E26A1FB56
:101170000B131A449A4234BF0123002303EB0608E1
:101180000CEB8003D3E901A60E448E4234BF01214B
:10119000002192448A4411B1924502D903E092455C
:1011A00001D2012100E00021C3E901A641444CF82D
:1011B0002010011EA0F10100C4DC029800F10050D3
:1011C000850F0298DDE903678000DDF8148000F0E8
:1011D00064FE41EC1A0B304600F076FE9FED541B86
:1011E00053EC112B00F084FE41EC1B0B384600F051
:1011F0006BFE9FED511B53EC112B00F079FE41EC7F
:10120000180B404600F060FE9FED4D1B53EC112B78
:1012100000F06EFE41EC190B51EC180B53EC192B3E
:1012200000F00CFC53EC1B2B00F008FC53EC1A2BC9
:1012300000F004FCCDE90801002008909DED080BAA
:1012400053EC1A2B51EC100B00F05CFF53EC1B2BF2
:1012500000F058FF53EC182B00F054FF53EC192BFF
:1012600000F044FF9FED381B53EC112B00F040FEC3
:101270009FED370B41EC180B53EC102B9DED080B39
:1012800051EC100B00F034FE53EC182B00F0D6FBA1
:101290009FED310B41EC180B53EC102B9DED080B1F
:1012A00051EC100B00F024FE53EC182B00F0C6FBA1
:1012B00041EC100B139810F0004F06D06D4251EC2A
:1012C000100B00F07DFB41EC100B284684ED000B69
:1012D00041E60000000000000000000000000000E7
:1012E000FB21E93F7CD9024000004054FB21F93F3B
:1012F0003163621A61B4D03DFB21F93F0000000068
:101300000000601A61B4D03D7370032E8A19A33BAC
:10131000FB2139410000000083C8C96D305FE43F04
:10132000000000000000E03FB212000000120000C8
:10133000000000000000103E000000000000103C13
:10134000000000000000103A182D4454FB21F93D24
:101350003326A611460B113C00000054FB21F93D39
:1013600010B52DED040B2DED088B82B0B0EE419A37
:10137000F0EE619A0B9820F000449FED4BABB4F176
:10138000795F11DA9DED0A0B51EC100B00F056FD60
:10139000002801BFB0EE4A0AF0EE6A0A02B0BDECC6
:1013A000088B04BF04B010BD9DED0A0B53EC102B4D
:1013B00051EC100B00F09CFD41EC180B3C48062151
:1013C000B0EE480AF0EE680A784400F081F853EC79
:1013D000182B51EC100B00F08BFD9DED0A0B41EC2E
:1013E0001B0B53EC192B51EC100B00F081FD41EC61
:1013F000190B53EC1B2B51EC180B00F079FD53EC3F
:10140000192B00F07FFE9FED2C0B41EC190B53ECD8
:10141000102B51EC180B00F06BFD41EC100B284821
:10142000844210DA53EC192B51EC100B00F06AFED9
:1014300053EC1A2B00F05AFE41EC100B02B0BDEC3D
:10144000088B04B010BD1F48A042BCBF9FED1E1BFF
:101450008DED001B06DBA4F500100190002000902C
:101460009DED001B51EC100B53EC112B00F04AFECC
:101470009DED000B41EC180B53EC102B51EC1A0BAB
:1014800000F040FE41EC1A0B53EC192B51EC180BF9
:1014900000F038FE53EC1A2B00F028FE41EC100B44
:1014A000CCE7000000000000000000000000F03F5A
:1014B000240F000000000000000000000000E03FDA
:1014C0003333D33F0000E93F000000000000D23F6B
:1014D00070B504462DED028B4D1E00EBC500B0EE3D
:1014E000408AF0EE608A90ED000B35F0060017D0D0
:1014F00053EC182B51EC100B00F0FAFC41EC100BE4
:101500006D1E04EBC50090ED001B51EC100B53EC6D
:10151000112B00F093FA41EC100B35F00600E7D1E7
:10152000022D36D0042D1CD0062D1CBFBDEC028B25
:1015300070BD53EC182B51EC100B00F0D9FC94ED5E
:101540000A1B53EC112B00F079FA53EC182B00F026
:10155000CFFC94ED081B53EC112B00F06FFA41EC1B
:10156000100B53EC182B51EC100B00F0C1FC94ED58
:10157000061B53EC112B00F061FA53EC182B00F012
:10158000B7FC94ED040B53EC102B00F057FA41EC30
:10159000100B53EC182B51EC100B00F0A9FC94ED40
:1015A000021B53EC112B00F049FA53EC182B00F0FE
:1015B0009FFC94ED001B53EC112B00F03FFABDECA7
:1015C000028B41EC100B70BD31B504462DED040BC0
:1015D0002DED0A8BB0EE41BAF0EE61BA0B989DED9D
:1015E0000A0B20F00040B0F1795F0DDA51EC100BDE
:1015F000FFF70AFC042808BF00F09AF89DED0A0BDB
:10160000BDEC0A8B05B030BD53EC102B51EC100B28
:1016100000F06EFC41EC180B9DED0A0B53EC182BFF
:1016200051EC100B00F064FC41EC190B2C48B0EEAF
:10163000480AF0EE680A05217844FFF749FF9FED5C
:101640002ACBB0EE40AAF0EE60AA9CB353EC1C2B60
:1016500051EC190B00F04CFC41EC1C0B53EC1A2B19
:1016600051EC190B00F044FC9FED210B41EC190BE0
:1016700053EC102B51EC1B0B00F03AFC53EC192BE4
:1016800000F040FD53EC182B00F032FC53EC1B2B08
:1016900000F038FD53EC1C2B00F034FD9DED0A1BCF
:1016A00053EC112B00F022FDBDEC0A8B05B041EC90
:1016B000100B30BDFFE753EC1A2B51EC180B00F068
:1016C00017FC53EC1C2B00F0B9F953EC192B00F06C
:1016D0000FFC9DED0A1B53EC112B00F0AFF9E3E773
:1016E000AC0D000000000000495555555555C5BFCB
:1016F000000000000000E03F10B553EC102B51EC4F
:10170000100B00F09BF941EC100B10BD0000000025
:101710009FED050B10B553EC102B51EC100B00F0A6
:1017200035FA41EC100B10BD000000000000000075
:101730009FED050B10B553EC102B51EC100B00F086
:10174000D7FB41EC100B10BD0000000000000010A2
:1017500013480078062820D11148001D007800F0B9
:101760000F00D0B90E480830007800F0F0003028A3
:1017700001D1012070470A480830007800F0F000DD
:10178000402801D10120F5E705480830007800F035
:10179000F000502801D10120ECE70020EAE700002A
:1017A000E00F00F00A48007806280ED10848001D16
:1017B000007800F00F0040B905480830007800F0CC
:1017C000F000302801D1012070470020FCE7000024
:1017D000E00F00F013480078062820D11148001DC2
:1017E000007800F00F00D0B90E480830007800F003
:1017F000F000302801D1012070470A4808300078F5
:1018000000F0F000402801D10120F5E7054808303C
:10181000007800F0F000502801D10120ECE7002012
:10182000EAE70000E00F00F00A48007806280ED131
:101830000848001D007800F00F0040B90548083046
:10184000007800F0F000302801D10120704700201E
:10185000FCE70000E00F00F013480078062820D1D4
:101860001148001D007800F00F00D0B90E48083074
:10187000007800F0F000302801D1012070470A48BC
:101880000830007800F0F000402801D10120F5E791
:1018900005480830007800F0F000502801D1012000
:1018A000ECE70020EAE70000E00F00F00A480078CB
:1018B00006280ED10848001D007800F00F0040B93E
:1018C00005480830007800F0F000302801D10120F0
:1018D00070470020FCE70000E00F00F00A480078A5
:1018E00006280ED10848001D007800F00F0040B90E
:1018F00005480830007800F0F000302801D10120C0
:1019000070470020FCE70000E00F00F00A48007874
:1019100006280ED10848001D007800F00F0040B9DD
:1019200005480830007800F0F000502801D101206F
:1019300070470020FCE70000E00F00F082B0CDE926
:10194000000121F0004001909DED000B02B051EC30
:10195000100B704700BFFEF70EFEFEF71BFE14488B
:10196000006840F4001012490860FEF7BBFE4FF417
:101970000060FEF713FF19E000BF0E480078002852
:10198000FBD00D490D4A127831F81200FFF76EF8BE
:101990000A490978481CC11700EB11710911A0EB25
:1019A0000111064A1170002002490870E4E70000A6
:1019B0000405005000000020600000200900002005
:1019C00081F00041704780F00040704721F00041F5
:1019D000704720F00040704721F00042A2F16052B1
:1019E000B2F5801F01F0004328BFD2F17F6C0BD904
:1019F0005FEA001C43EAC20242EB507018BF704716
:101A000028BF20F001007047B2F5801FBCBF184608
:101A100070474FEA410C1CF5001F02D2084600F047
:101A200060BC70B500F00EFB00000089FFF7F6BF48
:101A30004FF00040A0F580007047000010B591EA1B
:101A4000030F48BF83F0004300F16483841A71EBF5
:101A5000030C05D2121943EB0C03001B61EB0C01C4
:101A6000DFF824E14FEA1154A4EB135C1EEA430FA4
:101A700018BF9EEA445F73D023EA0E03DCF1200E08
:101A800021EA045143F4801332D322FA0CFE10EB06
:101A90000E0023FA0CFE41EB0E01CCF1200E03FAEE
:101AA0000EFE10EB0E0051F10001B1F5801FCCF1DC
:101AB000200E32D201EB045112FA0EF2BDE81040B2
:101AC00058BF7047401C38BF5FEA420218BF7047DA
:101AD000002814BF20F0010041F100014FEA41034A
:101AE00013F5001F38BF7047A1F1C04100F0F8BAEC
:101AF000012A43EB0302ACF1200CDCF11F0E32BFD4
:101B00004FF0000E23FA0CF310EB030041EB0451ED
:101B1000B4EB115FD0D0A1EB045101F5801149085D
:101B20005FEA300001EB04510ED350F1000038BFE2
:101B300012FA0EFE08D1BDE81040C9E7401C38BFBC
:101B40005FEA4202CAD1C3E7BDE810404FEA410351
:101B500013F5001F38BF7047A1F1C04100F0C0BAB3
:101B60009EEA445F08D011EA5E0FBDE8104004BF52
:101B700001F0004100207047BDE8104070B500F052
:101B800061FA00BF64FBBE3E0000E0FF2DE9C041EA
:101B900030B4DFF8A0C23CEA111418BF3CEA1314B9
:101BA00000F0EC8081EA03051CEA111444EAD574C4
:101BB00018BF1CEA131500F0C780A4EB05044FF012
:101BC000004545EAC12145EAC32341EA505143EAB1
:101BD000525304F17F74994204F500344FEAC02057
:101BE0004FEAC22208BF904200F09C804FEA136582
:101BF0000FF24016765D4FEA134506FB05F7C7F175
:101C0000807706FB07F74FEAD737A7FB03687642D2
:101C1000C8F58038A7FB06CE38BFA8F1010807FB3E
:101C200008E64FF0000EA6FB028CE6FB03CEDCF1CB
:101C3000000CCEF1004E38BFAEF1010EA6FB0C58E1
:101C40004FF000074FF00005E6FB0E87A1FB08C62A
:101C5000A0FB07CE16EB0E0645F10005E1FB07657C
:101C600015F1E04E7EBFA4F580345FEA46066D4173
:101C700016F1800745F100054FEA17274FEA06667F
:101C800047EA0567A6F1DE46B6F1805F4FEA152503
:101C90001FD9384624F0010C05EBC471BCF1FE6F6E
:101CA00001EB0C1102D8F0BCBDE8008124425CBFFE
:101CB00001F5801E9EEAC47F02D4F0BCBDE800811D
:101CC000244238D4F0BCA1F1C041BDE8004100F08D
:101CD00007BA4FEAD22242EA43524FEAD323A7FB84
:101CE00002864FEAD02040EA415007FB03661EEA15
:101CF0000E0F4FEAD12105FB026658BFA6EB005636
:101D0000B6EB00564FEA520E4EEAC37E18EB0E0EAB
:101D100056EB530EBDD518EB02085E417F1C55F102
:101D20000005B6E74FF480154FF000074FF00006AE
:101D30004FF00008ADE7F0BC4FF0000001F1C041EA
:101D400001F00041BDE8008111EA0C1F0CEA1315F7
:101D500000D00CE013EA0C1F00F025804FF00000CB
:101D6000F0BC81EA030101F00041BDE80081F0BC54
:101D7000BDE8004181EA030100F0B2B9F0BCBDE862
:101D8000004170B500F05EF9097EFC3E00F007B836
:101D900081EA03014FF0000001F00041704781EA41
:101DA000030100F09DB9F0BCBDE800414FF0000018
:101DB00021497047FFFDFBF9F7F5F4F2F0EEEDEB8A
:101DC000E9E8E6E4E3E1E0DEDDDBDAD8D7D5D4D339
:101DD000D1D0CFCDCCCBCAC8C7C6C5C4C2C1C0BF85
:101DE000BEBDBCBBBAB9B8B7B6B5B4B3B2B1B0AF8B
:101DF000AEADACABAAA9A8A8A7A6A5A4A3A3A2A16F
:101E0000A09F9F9E9D9C9C9B9A9999989797969529
:101E100095949393929191908F8F8E8E8D8C8C8BC5
:101E20008B8A89898888878786858584848383824D
:101E3000828181800000FF070000F87F4FEA4103A4
:101E40004FEA5353A3F58063D3F11E03C8BFD3F108
:101E5000210C0CDD4FF0004242EAC12242EA50520E
:101E600032FA03FC8CEAE17CACEBE1707047102B9A
:101E7000C4BF0020704703F5787CBCF1FF3F04D05D
:101E80006FF0004282EA2100704770B500F0DAF886
:101E90004992248000207047F2E710F0004248BFCA
:101EA0004042B0FA80F310FA03F10AD0C3F11D03E7
:101EB00003F580634FEA415002EB035202EBD1215C
:101EC00070474FF000007047B0FA80F310FA03F14A
:101ED0000AD0C3F11D0303F580634FEA41504FEA76
:101EE000035202EBD12170474FF000007047000011
:101EF000DFF848C170B51CEA111E1EBF1CEA13159D
:101F00009EEA0C0F95EA0C0F00F06F8081EA030443
:101F100023EA4C134EEAD47E21EA4C1141F480119D
:101F200043F48013AE44A1FB024CA0FB0365AEF169
:101F30007F7E361955EB0C05A1FB034C4CF10003D9
:101F4000A0FB021C16EB0C06654153F1000309428D
:101F500018BF46F0010613F4007F0BD14FEA03319E
:101F60004FEA0530340341EA155140EA16506FF04C
:101F700003020AE04FEAC3214FEAC520F40241EA16
:101F8000555140EA56506FF0020202EB2E4201EB2F
:101F9000025585EACE710AD05FEA440C18BF24F0DE
:101FA000004450F1000041F1000120EAD47040F2F9
:101FB000FE7C624500D270BDA84214BF4FF0804441
:101FC0004FF04044002E08BF0024BEF1806FA8BF30
:101FD000A1F1C041BDE8704080F282804FF0000066
:101FE00001F1C04101F0004170479EEA0C0F0CEA7C
:101FF000131518BF95EA0C0F06D04FF0000081EAC8
:10200000030E0EF0004170BD00F01CF88900013E87
:1020100000F007B800F009B84FEA430C5FEA5C5CD7
:1020200008D081EA030100F05BB84FEA410C5FEA97
:102030005C5CF6D14FF00000014970470000FF07DB
:102040000000F87F0EF1020E2EF0030E5EF8046B16
:10205000364205D4012A43EB030515F5001F12D8BB
:10206000012841EB010C1CF5001F0CD80ED14FEAE2
:10207000D17C15F5001F0CEB4C0C0CF1020C08BFC9
:102080004CEBD37C04E04FF0080C01E04FEAD37C2A
:102090000CEB4C0526FA05F606F00706B6F1040C23
:1020A00006D20EEB860CBDE870404CF0010C604788
:1020B000DFE80CF0090B02024FF000414FF0000086
:1020C000A1F5002170BD19461046012851EB01040D
:1020D00018BFD4F5001484BF002001F0004170BD8A
:1020E0000808A0F500114FEA3101704791EA030F8B
:1020F00010B581F000413FF5A9AC83F0004300F03A
:1021000009B8000010B591EA030F48BF83F00043FF
:102110003FF59CAC841A71EB030C07D212198CF0BA
:10212000004C43EB0C03001B61EB0C01DFF8A4E156
:102130004FEA1154A4EB135C1EEA430F18BF9EEA4A
:10214000445F00F0B08023EA6E03524221EA04515A
:10215000C3EB6E0338BF5B1EDCF1200E25D322FAE1
:102160000CFE10EB0E0043FA0CFE41EB0E01CCF11D
:10217000200E03FA0EFE10EB0E0051F10001CCF11F
:10218000200E29D412FA0EF201EB0451BDE81040E2
:1021900058BF7047401C1CBFB2F1004F7047002869
:1021A0000CBF491C20F00100704712EB020E43EBFC
:1021B000030218BF4FF0010E4EEA4202ACF1200CB0
:1021C000DCF11E0E54D943FA0CFE10EB0E0051F157
:1021D000FF31CCF11E0ED5D50EF1010E12FA0EFE16
:1021E000404141EB010101EB445C5FEA5C5C10D9CA
:1021F00010EBDE7001EB045138BFBEF1004FBDE8BB
:10220000104018BF704700280CBF491C20F0010087
:10221000704730D24FEAD42C11F5001124F4006439
:102220001BD0B1FA81F20B3AA41AA41ED2F12003FA
:10223000914030FA03F31943904001EBCC71002C2C
:1022400001EB0451BDE81040A8BF704701F1C04147
:102250004FF0000001F000417047B0FA80F310FA2F
:1022600003F100D110BDE41A173C4805C90AE4E7A0
:1022700001EB045110BD491001EB0451BDE81040C1
:102280004FEA300002E04FF0000170474A0008BFFB
:102290000042F8D0B2F5001F28BF704701F000419E
:1022A0004FF0000070479EEA445F07D011EA5E0FCE
:1022B000BDE8104004BF002100207047BDE8104079
:1022C00070B5FFF7BFFE00BF40DFF63E83F0004170
:1022D000104670470000E0FF4FF04070E1EE100A3A
:1022E0007047FF2141EAD050C00570470000000050
:1022F0004C5555555555A53F7751C1166CC156BF24
:102300009015CB19A001FA3EAD529C804F7E92BE33
:10231000C4B1B4BD9EEE213ED43888BEE9FAA8BD52
:1023200000004054FB21F93F3163621A61B4D03D93
:102330000000601A61B4D03D7370032E8A19A33B6C
:102340000000002E8A19A33BC14920259A837B39BE
:1023500000000000000000006E83F9A22915444E21
:10236000D15727FCC0DD34F5999562DB4190433CA1
:10237000AB6351FE61C5BBDE3A6E24B7E0D24D427D
:10238000EA2E49061C92D1091CEB1DFE3EA729B17D
:10239000F53582E88444BB2E26709CE9417E5FB40B
:1023A00039D69139F43953838B5F849C3B28F9BD2E
:1023B000FF97F81F0F9805DE8B112FEF1F6D0A5A3C
:1023C000CF7E366DB709CB27663F464F2DEA5F9E1D
:1023D000C7BA27757BF1E5EBF739073DEA92528AD8
:1023E000B15FFB6B085D8D1FA6F810111111813FC5
:1023F000D561C119A0012ABF7DFEB157E31DC73EBB
:10240000EB9C2B8AE6E55ABE7CD5CF5A3AD9E53DFE
:102410003024000000000020100000003C040000F8
:102420004024000010000020E0400000580400009C
:102430000000000000000000000000000090D00339
:04000005000004A152
:00000001FF
