:020000040000FA
:10000000D0420020A1040000A9040000AB040000BD
:10001000AD040000AF040000B104000000000000C7
:10002000000000000000000000000000B304000019
:10003000B504000000000000B7040000B90400008F
:10004000BB040000BB040000BB040000D906000094
:1000500021070000BB040000BB0400002D060000C7
:10006000BB040000ED080000BB040000BB0400005E
:10007000BB040000BB040000BB040000BB04000084
:10008000BB040000BB040000BB040000BB04000074
:10009000BB040000BB040000BB040000BB04000064
:1000A000BB040000BB040000BB040000BB04000054
:1000B000BB040000BB0400000000000000000000C2
:1000C000BB040000BB040000BB040000BB04000034
:1000D000BB040000BB040000BB04000000000000E3
:1000E0000000000000000000000000000000000010
:1000F0000000000000000000000000000000000000
:1001000000000000000000000000000000000000EF
:1001100000000000000000000000000000000000DF
:1004000000F002F800F03CF80AA090E8000C8244EA
:100410008344AAF10107DA4501D100F031F8AFF2C7
:10042000090EBAE80F0013F0010F18BFFB1A43F0D2
:1004300001031847F406000014070000103A24BF17
:1004400078C878C1FAD8520724BF30C830C144BF39
:1004500004680C607047000000230024002500267B
:10046000103A28BF78C1FBD8520728BF30C148BF17
:100470000B6070471FB500F051FB1FBD10B510BDDC
:1004800000F036F81146FFF7F5FF00F035FB00F0FD
:1004900054F803B4FFF7F2FF03BC00F057F8000074
:1004A0000948804709480047FEE7FEE7FEE7FEE708
:1004B000FEE7FEE7FEE7FEE7FEE7FEE70448054944
:1004C000054A064B70470000610700000104000068
:1004D000D0020020D0420020D0220020D0220020D4
:1004E0007047704770470000004870476C0200205A
:1004F0007546FFF7F9FFAE4605006946534620F002
:100500000700854618B020B5FFF7D8FFBDE82040AA
:100510004FF000064FF000074FF000084FF0000BBF
:1005200021F00701AC46ACE8C009ACE8C009ACE872
:10053000C009ACE8C0098D46704710B50446AFF35A
:1005400000802046BDE81040FFF7A3BF01491820F6
:10055000ABBEFEE7260002007047002006E0002147
:1005600000E0491CB1F57A7FFBD3401C42F21072C7
:100570009042F4D370470000012029494860C01E12
:10058000284908602848006840F40010264908609F
:100590000846006840F0805008600846006840F453
:1005A000006008600846006840F4002008600846C3
:1005B000006840F4000008601B481038006820F014
:1005C00080501949103908600846006820F400601E
:1005D00008600846006820F40020086008460068AB
:1005E00020F4000008601048006840F080000E49C8
:1005F00008600D481038006840F080000A49103942
:1006000008600948006840F480700749086006489F
:100610001038006820F48070034910390860704772
:10062000005000400C120010140500500020254915
:10063000086001202449886000202449086024487B
:100640000078401C032190FBF1F201FB12002049CD
:1006500008700846007820B101280BD002281BD171
:1006600011E000211948303001600620174910318F
:1006700008601DE00020154910310860072113486B
:100680002030016014E00021104820300160082172
:100690000E48303001600BE006200C491031086034
:1006A00000210A482030016008483030016000BF56
:1006B00000BF01200549086003490860054908702A
:1006C0007047000008710040007000400075004055
:1006D000150000201400002000200B4908600120B4
:1006E0000A4948610A48006840F400400849086027
:1006F0000848807808490870AA20487055208870FA
:100700000120064908707047183100400030004051
:10071000040500506C0000200602002008000020A4
:1007200000200849086001204FF040214861064838
:10073000006840F480700449086001200349087093
:100740007047000018410040040500500C000020D4
:1007500001480249086070470090D003180000204B
:1007600010B500F0FDF810B156485749486700F041
:100770000FF928B155480068C0F342305449086069
:1007800000F030F928B15348006820F080705149DA
:10079000086000F03FF948B100204F4908604FF071
:1007A0008041C1F810014A49091F086000F05CF956
:1007B00018B1032046496431086000F06DF968B152
:1007C000052046490860012044497831086000202E
:1007D0004249083108603F20091F086000F074F9A1
:1007E000002855D03E4800683E4908603C48001D3E
:1007F0000068091D08603A4808300068091D086053
:1008000037480C300068091D086035481030006812
:10081000091D0860324814300068091D086030481E
:10082000183000682F49203108602D481C300068BE
:10083000091D08602A4820300068091D0860284802
:1008400024300068091D0860254828300068091D0B
:10085000086023482C300068091D086020483030AB
:1008600000682049403108601D4834300068091D87
:1008700008601B4838300068091D086018483C3083
:100880000068091D0860164840300068091D0860AE
:1008900000F03CF830B10D481430006800F04F0013
:1008A000114908600B487438006840F47000094929
:1008B00074390860BFF34F8FBFF36F8FFFF748FFA6
:1008C00010BD00000DF0ADBA00C00740440200109A
:1008D0003C050040FCED00E00C01004010560040DB
:1008E0000404001020C50040E40E0040002004492C
:1008F0000860012003494860034908707047000000
:100900004091004000700040000000201348007833
:10091000062820D11148001D007800F00F00D0B942
:100920000E480830007800F0F000302801D1012096
:1009300070470A480830007800F0F000402801D1E4
:100940000120F5E705480830007800F0F000502855
:1009500001D10120ECE70020EAE70000E00F00F001
:100960000A48007806280ED10848001D007800F0DB
:100970000F0040B905480830007800F0F00030283A
:1009800001D1012070470020FCE70000E00F00F0DB
:1009900013480078062820D11148001D007800F087
:1009A0000F00D0B90E480830007800F0F000302871
:1009B00001D1012070470A480830007800F0F000AB
:1009C000402801D10120F5E705480830007800F003
:1009D000F000502801D10120ECE70020EAE70000F8
:1009E000E00F00F00A48007806280ED10848001DE4
:1009F000007800F00F0040B905480830007800F09A
:100A0000F000302801D1012070470020FCE70000F1
:100A1000E00F00F013480078062820D11148001D8F
:100A2000007800F00F00D0B90E480830007800F0D0
:100A3000F000302801D1012070470A4808300078C2
:100A400000F0F000402801D10120F5E7054808300A
:100A5000007800F0F000502801D10120ECE70020E0
:100A6000EAE70000E00F00F00A48007806280ED1FF
:100A70000848001D007800F00F0040B90548083014
:100A8000007800F0F000302801D1012070470020EC
:100A9000FCE70000E00F00F00A48007806280ED1BD
:100AA0000848001D007800F00F0040B905480830E4
:100AB000007800F0F000302801D1012070470020BC
:100AC000FCE70000E00F00F00A48007806280ED18D
:100AD0000848001D007800F00F0040B905480830B4
:100AE000007800F0F000502801D10120704700206C
:100AF000FCE70000E00F00F000BF00BF00BFFFF701
:100B00002CFDFFF739FD0448006840F4001002494D
:100B1000086000BFFEE70000040500504FF0407081
:100B2000E1EE100A70470000480B000000000020B2
:100B30001C0000003C040000640B00001C000020AE
:100B4000B442000058040000000000000000000053
:100B50000000000000000000000000000000000095
:040B60000090D0032E
:04000005000004A152
:00000001FF
